{
  "_format": "hh-sol-artifact-1",
  "contractName": "LegacyChain",
  "sourceName": "contracts/LegacyChain.sol",
  "abi": [
    {
      "inputs": [
        {
          "internalType": "address",
          "name": "_authority",
          "type": "address"
        }
      ],
      "stateMutability": "nonpayable",
      "type": "constructor"
    },
    {
      "inputs": [
        {
          "internalType": "string",
          "name": "_hash",
          "type": "string"
        },
        {
          "internalType": "address",
          "name": "_beneficiary",
          "type": "address"
        }
      ],
      "name": "addAsset",
      "outputs": [],
      "stateMutability": "nonpayable",
      "type": "function"
    },
    {
      "inputs": [],
      "name": "assetCount",
      "outputs": [
        {
          "internalType": "uint256",
          "name": "",
          "type": "uint256"
        }
      ],
      "stateMutability": "view",
      "type": "function"
    },
    {
      "inputs": [
        {
          "internalType": "uint256",
          "name": "",
          "type": "uint256"
        }
      ],
      "name": "assets",
      "outputs": [
        {
          "internalType": "string",
          "name": "assetHash",
          "type": "string"
        },
        {
          "internalType": "address",
          "name": "beneficiary",
          "type": "address"
        },
        {
          "internalType": "bool",
          "name": "released",
          "type": "bool"
        }
      ],
      "stateMutability": "view",
      "type": "function"
    },
    {
      "inputs": [],
      "name": "authority",
      "outputs": [
        {
          "internalType": "address",
          "name": "",
          "type": "address"
        }
      ],
      "stateMutability": "view",
      "type": "function"
    },
    {
      "inputs": [
        {
          "internalType": "uint256",
          "name": "_id",
          "type": "uint256"
        }
      ],
      "name": "getAsset",
      "outputs": [
        {
          "internalType": "string",
          "name": "",
          "type": "string"
        }
      ],
      "stateMutability": "view",
      "type": "function"
    },
    {
      "inputs": [],
      "name": "owner",
      "outputs": [
        {
          "internalType": "address",
          "name": "",
          "type": "address"
        }
      ],
      "stateMutability": "view",
      "type": "function"
    },
    {
      "inputs": [
        {
          "internalType": "uint256",
          "name": "_id",
          "type": "uint256"
        }
      ],
      "name": "verifyDeathAndRelease",
      "outputs": [],
      "stateMutability": "nonpayable",
      "type": "function"
    }
  ],
  "bytecode": "0x608060405234801561001057600080fd5b506040516111b13803806111b18339818101604052810190610032919061011c565b336000806101000a81548173ffffffffffffffffffffffffffffffffffffffff021916908373ffffffffffffffffffffffffffffffffffffffff16021790555080600160006101000a81548173ffffffffffffffffffffffffffffffffffffffff021916908373ffffffffffffffffffffffffffffffffffffffff16021790555050610149565b600080fd5b600073ffffffffffffffffffffffffffffffffffffffff82169050919050565b60006100e9826100be565b9050919050565b6100f9816100de565b811461010457600080fd5b50565b600081519050610116816100f0565b92915050565b600060208284031215610132576101316100b9565b5b600061014084828501610107565b91505092915050565b611059806101586000396000f3fe608060405234801561001057600080fd5b506004361061007d5760003560e01c8063bf7e214f1161005b578063bf7e214f146100d8578063cf35bdd0146100f6578063eac8f5b814610128578063eafe7a74146101585761007d565b8063663bf220146100825780638da5cb5b1461009e578063adc02a64146100bc575b600080fd5b61009c60048036038101906100979190610737565b610176565b005b6100a661029c565b6040516100b391906107a5565b60405180910390f35b6100d660048036038101906100d19190610932565b6102c0565b005b6100e0610433565b6040516100ed91906107a5565b60405180910390f35b610110600480360381019061010b9190610737565b610459565b60405161011f93929190610a28565b60405180910390f35b610142600480360381019061013d9190610737565b610538565b60405161014f9190610a66565b60405180910390f35b6101606106e7565b60405161016d9190610a97565b60405180910390f35b600160009054906101000a900473ffffffffffffffffffffffffffffffffffffffff1673ffffffffffffffffffffffffffffffffffffffff163373ffffffffffffffffffffffffffffffffffffffff1614610206576040517f08c379a00000000000000000000000000000000000000000000000000000000081526004016101fd90610afe565b60405180910390fd5b6002600082815260200190815260200160002060010160149054906101000a900460ff161561026a576040517f08c379a000000000000000000000000000000000000000000000000000000000815260040161026190610b6a565b60405180910390fd5b60016002600083815260200190815260200160002060010160146101000a81548160ff02191690831515021790555050565b60008054906101000a900473ffffffffffffffffffffffffffffffffffffffff1681565b60008054906101000a900473ffffffffffffffffffffffffffffffffffffffff1673ffffffffffffffffffffffffffffffffffffffff163373ffffffffffffffffffffffffffffffffffffffff161461034e576040517f08c379a000000000000000000000000000000000000000000000000000000000815260040161034590610bd6565b60405180910390fd5b60405180606001604052808381526020018273ffffffffffffffffffffffffffffffffffffffff1681526020016000151581525060026000600354815260200190815260200160002060008201518160000190816103ac9190610e02565b5060208201518160010160006101000a81548173ffffffffffffffffffffffffffffffffffffffff021916908373ffffffffffffffffffffffffffffffffffffffff16021790555060408201518160010160146101000a81548160ff0219169083151502179055509050506003600081548092919061042a90610f03565b91905055505050565b600160009054906101000a900473ffffffffffffffffffffffffffffffffffffffff1681565b600260205280600052604060002060009150905080600001805461047c90610c25565b80601f01602080910402602001604051908101604052809291908181526020018280546104a890610c25565b80156104f55780601f106104ca576101008083540402835291602001916104f5565b820191906000526020600020905b8154815290600101906020018083116104d857829003601f168201915b5050505050908060010160009054906101000a900473ffffffffffffffffffffffffffffffffffffffff16908060010160149054906101000a900460ff16905083565b60606002600083815260200190815260200160002060010160009054906101000a900473ffffffffffffffffffffffffffffffffffffffff1673ffffffffffffffffffffffffffffffffffffffff163373ffffffffffffffffffffffffffffffffffffffff16146105de576040517f08c379a00000000000000000000000000000000000000000000000000000000081526004016105d590610f97565b60405180910390fd5b6002600083815260200190815260200160002060010160149054906101000a900460ff16610641576040517f08c379a000000000000000000000000000000000000000000000000000000000815260040161063890611003565b60405180910390fd5b60026000838152602001908152602001600020600001805461066290610c25565b80601f016020809104026020016040519081016040528092919081815260200182805461068e90610c25565b80156106db5780601f106106b0576101008083540402835291602001916106db565b820191906000526020600020905b8154815290600101906020018083116106be57829003601f168201915b50505050509050919050565b60035481565b6000604051905090565b600080fd5b600080fd5b6000819050919050565b61071481610701565b811461071f57600080fd5b50565b6000813590506107318161070b565b92915050565b60006020828403121561074d5761074c6106f7565b5b600061075b84828501610722565b91505092915050565b600073ffffffffffffffffffffffffffffffffffffffff82169050919050565b600061078f82610764565b9050919050565b61079f81610784565b82525050565b60006020820190506107ba6000830184610796565b92915050565b600080fd5b600080fd5b6000601f19601f8301169050919050565b7f4e487b7100000000000000000000000000000000000000000000000000000000600052604160045260246000fd5b610813826107ca565b810181811067ffffffffffffffff82111715610832576108316107db565b5b80604052505050565b60006108456106ed565b9050610851828261080a565b919050565b600067ffffffffffffffff821115610871576108706107db565b5b61087a826107ca565b9050602081019050919050565b82818337600083830152505050565b60006108a96108a484610856565b61083b565b9050828152602081018484840111156108c5576108c46107c5565b5b6108d0848285610887565b509392505050565b600082601f8301126108ed576108ec6107c0565b5b81356108fd848260208601610896565b91505092915050565b61090f81610784565b811461091a57600080fd5b50565b60008135905061092c81610906565b92915050565b60008060408385031215610949576109486106f7565b5b600083013567ffffffffffffffff811115610967576109666106fc565b5b610973858286016108d8565b92505060206109848582860161091d565b9150509250929050565b600081519050919050565b600082825260208201905092915050565b60005b838110156109c85780820151818401526020810190506109ad565b60008484015250505050565b60006109df8261098e565b6109e98185610999565b93506109f98185602086016109aa565b610a02816107ca565b840191505092915050565b60008115159050919050565b610a2281610a0d565b82525050565b60006060820190508181036000830152610a4281866109d4565b9050610a516020830185610796565b610a5e6040830184610a19565b949350505050565b60006020820190508181036000830152610a8081846109d4565b905092915050565b610a9181610701565b82525050565b6000602082019050610aac6000830184610a88565b92915050565b7f4e6f7420617574686f7269747900000000000000000000000000000000000000600082015250565b6000610ae8600d83610999565b9150610af382610ab2565b602082019050919050565b60006020820190508181036000830152610b1781610adb565b9050919050565b7f416c72656164792072656c656173656400000000000000000000000000000000600082015250565b6000610b54601083610999565b9150610b5f82610b1e565b602082019050919050565b60006020820190508181036000830152610b8381610b47565b9050919050565b7f4e6f74206f776e65720000000000000000000000000000000000000000000000600082015250565b6000610bc0600983610999565b9150610bcb82610b8a565b602082019050919050565b60006020820190508181036000830152610bef81610bb3565b9050919050565b7f4e487b7100000000000000000000000000000000000000000000000000000000600052602260045260246000fd5b60006002820490506001821680610c3d57607f821691505b602082108103610c5057610c4f610bf6565b5b50919050565b60008190508160005260206000209050919050565b60006020601f8301049050919050565b600082821b905092915050565b600060088302610cb87fffffffffffffffffffffffffffffffffffffffffffffffffffffffffffffffff82610c7b565b610cc28683610c7b565b95508019841693508086168417925050509392505050565b6000819050919050565b6000610cff610cfa610cf584610701565b610cda565b610701565b9050919050565b6000819050919050565b610d1983610ce4565b610d2d610d2582610d06565b848454610c88565b825550505050565b600090565b610d42610d35565b610d4d818484610d10565b505050565b5b81811015610d7157610d66600082610d3a565b600181019050610d53565b5050565b601f821115610db657610d8781610c56565b610d9084610c6b565b81016020851015610d9f578190505b610db3610dab85610c6b565b830182610d52565b50505b505050565b600082821c905092915050565b6000610dd960001984600802610dbb565b1980831691505092915050565b6000610df28383610dc8565b9150826002028217905092915050565b610e0b8261098e565b67ffffffffffffffff811115610e2457610e236107db565b5b610e2e8254610c25565b610e39828285610d75565b600060209050601f831160018114610e6c5760008415610e5a578287015190505b610e648582610de6565b865550610ecc565b601f198416610e7a86610c56565b60005b82811015610ea257848901518255600182019150602085019450602081019050610e7d565b86831015610ebf5784890151610ebb601f891682610dc8565b8355505b6001600288020188555050505b505050505050565b7f4e487b7100000000000000000000000000000000000000000000000000000000600052601160045260246000fd5b6000610f0e82610701565b91507fffffffffffffffffffffffffffffffffffffffffffffffffffffffffffffffff8203610f4057610f3f610ed4565b5b600182019050919050565b7f4e6f742062656e65666963696172790000000000000000000000000000000000600082015250565b6000610f81600f83610999565b9150610f8c82610f4b565b602082019050919050565b60006020820190508181036000830152610fb081610f74565b9050919050565b7f416363657373206e6f742072656c656173656420796574000000000000000000600082015250565b6000610fed601783610999565b9150610ff882610fb7565b602082019050919050565b6000602082019050818103600083015261101c81610fe0565b905091905056fea2646970667358221220504aee4365fd586ecca746929c4baf9a7eeee7c4a6c9794ab5039f6763693a9264736f6c634300081c0033",
  "linkReferences": {},
  "deployedLinkReferences": {}
}